:020000040800F2
:1000000080BB0120E1020008712D00081D2D0008B1
:10001000512D0008E1180008E1410008000000002F
:10002000000000000000000000000000693300082C
:100030001127000800000000950200087134000834
:10004000FB020008FB020008FB020008FB0200089C
:10005000FB020008FB020008FB020008FB0200088C
:10006000FB020008FB020008FB020008FB0200087C
:10007000DD230008FB020008FB020008FB02000869
:10008000FB020008FB020008FB020008F51A00084A
:10009000A5190008FB020008FB020008FB0200088B
:1000A000FB020008FB020008FB020008FB0200083C
:1000B000FB020008FB020008FB020008FB0200082C
:1000C000FB020008FB020008FB020008FB0200081C
:1000D000FB020008553E0008953E0008D53E00088A
:1000E000FB020008FB020008FB020008FB020008FC
:1000F000FB020008FB020008FB020008FB020008EC
:10010000FB020008FB020008FB020008FB020008DB
:10011000D53D0008153E0008FB020008FB02000860
:10012000FB020008FB02000821240008FB02000873
:10013000FB020008FB020008FB020008111D00087A
:10014000B11B0008FB020008FB020008FB020008CC
:10015000FB020008FB020008FB020008FB0200088B
:10016000FB020008FB020008FB020008FB0200087B
:10017000FB020008FB020008FB020008FB0200086B
:10018000FB020008852A000800F002F800F072F86F
:100190000AA090E8000C82448344AAF10107DA45E2
:1001A00001D100F067F8AFF2090EBAE80F0013F0C2
:1001B000010F18BFFB1A43F001031847E8A0000025
:1001C00008A100000A444FF0000C10F8013B13F0A6
:1001D000070408BF10F8014B1D1108BF10F8015BA0
:1001E000641E05D010F8016B641E01F8016BF9D193
:1001F00013F0080F1EBF10F8014BAD1C0C1B09D1EA
:100200006D1E58BF01F801CBFAD505E014F8016B5B
:1002100001F8016B6D1EF9D59142D6D370470000ED
:100220000023002400250026103A28BF78C1FBD8FF
:10023000520728BF30C148BF0B607047662909F0DC
:100240008087642900F0A480782900F0DB8073297E
:1002500000F05784002070471FB509F068FF00F0D8
:100260008DFC04000020002109F07AFBE0601FBD36
:1002700010B510BD00F094FD1146FFF7EDFF04F03E
:1002800073FF00F0B2FD03B4FFF7F2FF03BC03F00D
:10029000D8FF000072B6EFF3098050B11EF0100FC6
:1002A00008BF20ED108A203880E8F00F0A4909685D
:1002B0000860094809490A680260106890E8F00F70
:1002C00020301EF0100F08BFB0EC108A80F30988B0
:1002D0004EF0040E62B670476002002064020020F7
:1002E0000948804709480047FEE7FEE7FEE7FEE7CA
:1002F000FEE7FEE7FEE7FEE7FEE7FEE70448054906
:10030000054A064B70470000813400088901000847
:1003100080B5012080BB012080B7012080B701207B
:10032000704700000FB4044910B503AA029800F00A
:10033000EDFB10BC5DF814FBFC01002070B50C4611
:100340000546012A05D02878800600D5EA690023F1
:1003500002E0012305E05B1C934202D2E05C00282E
:10036000F9D1A869E618C01AA861286A1844286259
:100370002846AFF3008004E0D5E9012114F8010B11
:100380009047B442F8D32846AFF3008070BD000018
:100390002DE9F0410646002410687529314615A55F
:1003A00010D0AFF30080002802DA404212A507E027
:1003B00031688A0701D511A502E0490704D510A5C7
:1003C000012401E0AFF3008000210A2306F1240795
:1003D00007E0B0FBF3F203FB120030307854104614
:1003E000491C0028F5D123462A463046BDE8F04195
:1003F00000F011B9000000002D0000002B000000EB
:100400002000000070B504460D4621461068AFF389
:1004100000802188090502D50F4A7A4402E00E4A7D
:100420007A440E32002104F1240305E000F00F06A7
:100430000009965D5E54491C0028F7D120780023FE
:10044000000704D5702D02D009B1022311322046D5
:10045000BDE8704000F0DFB8429D00002DE9F04794
:100460004FF0000A89460446C0F820A02046E16803
:100470008847002876D0252806D0D4E90121904766
:10048000206A401C2062F1E7E16820460025884789
:10049000C4F81CA006460027C4F818A02A2E09D0CC
:1004A000304603F0C7FE38B304EB8708303EC8F887
:1004B000186019E059F8041B204604EB870291618B
:1004C000E1688847012F064618D1E069002820DA44
:1004D00025F020051DE0D8F8180000EB800006EBA1
:1004E00040003038C8F818002046E16888470646C2
:1004F00003F0A0FE0028EED1012F0AD02E2E08D145
:100500002046E16888477F1C0646022F45F02005FB
:10051000C4DBA069002803DA404245F00105A06170
:10052000E80701D025F01005B6B1A6F14100192861
:1005300002D8203645F400654A46314620462560FB
:100540004D46FFF77BFE58B1012806D0ED1D25F082
:10055000070000F1080989E704E005F1040985E7CF
:1005600030468AE7206ABDE8F0874FF0000200B508
:10057000134694469646203922BFA0E80C50A0E8C6
:100580000C50B1F12001BFF4F7AF090728BFA0E874
:100590000C5048BF0CC05DF804EB890028BF40F840
:1005A000042B08BF704748BF20F8022B11F0804F82
:1005B00018BF00F8012B704710B5044610F0030F68
:1005C00008BF11F0030F40F015804FF0013E121FDD
:1005D000C0F20E8051F8043BA3EB0E0C2CEA030C86
:1005E0001CEACE1C08BF40F8043BF0D0A1F1040186
:1005F00002F10402521E08DB11F8013B002B00F847
:10060000013BF7D1114600F093FA204610BD704728
:100610007047704770472DE9F0470D46994692465E
:10062000044600F124080168880604D5E06921F039
:100630001001216000E00120A84201DD471B00E01D
:100640000027A1697A1902EB0900081AA061207835
:10065000C00602D42046AFF30080002608E0D4E9AB
:1006600001211AF806009047206A401C761C20627F
:100670004E45F4DB2078C0060AD52046AFF3008053
:1006800006E0D4E9012130209047206A401C206216
:10069000381EA7F10107F4DC07E0D4E9012118F8BE
:1006A00005009047206A401C2062281EA5F1010524
:1006B000F3DC2046AFF300802078000602D502204C
:1006C000BDE8F0870120FBE770472DE9FF4F0C469E
:1006D0001E464FF0FF378BB0D2E90001DDF8608095
:1006E0000A908A46C1F30A5505B93D4600210846DD
:1006F0004FF00000BAF1000F00F4400005DA00EB03
:1007000080004FF4400101EA50004FEA9059B9F1DE
:10071000010F00DDB9460A9850EA4A000ED044F6AF
:100720001050A5F2FF3545432F14B8F1000F1ED02D
:100730007542291E1EDDC9F100021CE0B8F1010F4F
:100740004FF0000001D0302103E0F24305E02154D6
:10075000401CB042FBDB30460022002121540B99A3
:10076000C1F80880C1E900200FB0BDE8F08FBD1BC3
:100770006D1CDEE74A4600DA694206A800F0A0FADE
:1007800006AB93E8070003AB83E8070050460A99DD
:1007900000F072FB8DE80700A0F500501F380090B4
:1007A0000398002D09DD42F21F014A46084403A9BF
:1007B0000390684600F0D1FD08E0A0F500504A46DD
:1007C0001F3803A90390684600F0DBFD8DE80700A1
:1007D0000004000C03D04FF0FF30410800E0104649
:1007E000B8F1000F03D00022009215461EE0751EDE
:1007F00005D400F0C7F9303262556D1EF9D5B34605
:100800000122084302D000227F1C04E02078302817
:1008100001D100227F1E002A099786D01DE0112DEC
:1008200007DA00F0AFF9303262556D1C50EA010270
:10083000F5D1084302D00098C8B10EE00021681E2F
:1008400005E0235C625C63542254401E491C8142D3
:10085000F7DBAB46A81B401E0990002004F80B00F4
:100860000B98099AC0F80880C0E9002B7CE7112694
:100870004FF0000859E72DE9F04F88460446D21D95
:1008800022F0070191B0D1E90001CDE90A0103F09E
:10089000B9FC02460B98C00F01D02D2007E020685C
:1008A000810701D52B2002E0202101EAC000032AA4
:1008B000099001D0072A05DB03464146204600F097
:1008C000BFF909E12078800601D5E06900E0062043
:1008D000B8F1650F814606D0B8F1660F18D0B8F1AF
:1008E000670F70D131E00020B9F1110F009001DBEA
:1008F000112301E009F101030AAA01A90CA8FFF7DD
:10090000E4FEDDE90C70002609F10105834647E0AD
:1009100001204B4600904FF000470AAA01A90CA8FD
:10092000FFF7D3FEDDE90DB00C995D46002610B946
:1009300009F101000D18B9EB050003D4C0F1FF3631
:1009400009F10105A5EB09002BE0B9F1010F01DA6E
:100950004FF001090020B9F1110F0090484601DD68
:10096000112300E003460AAA01A90CA8FFF7ADFE77
:10097000DDE90C704D4600268346207800070AD436
:10098000AB4500DA5D4601A8012D04DD411911F8DF
:10099000011C302907D04F4502DA17F1040F04DAA1
:1009A000012082460FE06D1EEEE7002F02DCED1BFA
:1009B0003E4403E0781CA84200DD7D1CB81B00F11A
:1009C000010A4FF000472078000703D4AA4501DB55
:1009D0004FF0FF3A0021B7F1004F0DF143088DF8B9
:1009E000431022D002202B23002F01DA7F422D2337
:1009F0004FF00A0C011EA0F1010000DC47B197FB8B
:100A0000FCF10CFB11720F46303208F8012DF1E7B2
:100A1000A8F1010003702188090501D5452100E0F6
:100A20006521A0F1010800F8011C09980FA9A1EBAC
:100A30000807FF1D00B10120411901EBEA70A1690F
:100A40003844081A401EA0612078C00602D420460F
:100A5000AFF30080099828B1D4E901219047206ABA
:100A6000401C20622078C00622D52046AFF30080CB
:100A70001EE0002E04DBB34502DD01A8805D00E02E
:100A80003020D4E901219047206A401C2062761C66
:100A9000AAF101005FEA000A0AD100F06FF8C0680D
:100AA0000168405CD4E901219047206A401C206223
:100AB000281EA5F10105DCDC07E0D4E9012118F8C6
:100AC000010B9047206A401C2062381EA7F10107E5
:100AD000F3DC2046AFF30080022011B045E610B5EC
:100AE000436913B1AFF3008001E0FFF727FC012059
:100AF00010BD127800F124010A7000224A70012210
:100B0000EDE711684FF0FF32E9E70000074B70B5E1
:100B10000D467B4400F081F80446284600F03CF97D
:100B200010B14FF0FF3070BD204670BD174300007C
:100B30004FF000020429C0F0128010F0030C3FF4C3
:100B400016ADCCF1040CBCF1020F18BF00F8012B5C
:100B5000A8BF20F8022BA1EB0C01FFF708BD5FEA4C
:100B6000C17C24BF00F8012B00F8012B48BF00F81E
:100B7000012B70470048704720B50120004870479E
:100B800040B5012030B5B0F10A024FEA900E71F184
:100B900000034EEA817EB0EB0E0061EB91014FEA5B
:100BA000101E4EEA017E10EB0E0041EB11114FEAD0
:100BB000102E4EEA016E10EB0E0041EB11214FEAB0
:100BC000104E4EEA014E10EB0E0041EB1141401861
:100BD00041F100014FEAD00040EA41704FEAD101F3
:100BE00010EB80054FEA810444EA907444EB010461
:100BF0006D1944EB0404521BA3414FF0000348BF9E
:100C00000A3200D530BD401C41F1000130BD00006A
:100C100001694A1C02610878704700B58FB0CDE9C0
:100C200001310021059105497944CDE903101146B0
:100C30006846FFF713FC0FB000BD0000E5FFFFFFA3
:100C40002DE9F0411F46044603260168072A01F4F6
:100C5000006004DB08B116A505E016A503E008B1A5
:100C600015A500E015A521F010002060A069C01EA8
:100C7000A0610FB1401EA0612046AFF300804FB1CC
:100C8000D4E9012138469047206A401C2062C01CEC
:100C9000206206E0206AFAE7D4E9012115F8010B89
:100CA0009047761EF8D22046AFF30080BDE8F08171
:100CB0004E414E006E616E00494E4600696E660000
:100CC0002DE9F047814616468AB0324878440DC86F
:100CD0008DE80D002F487844801C03AC0DC884E8D3
:100CE0000D0041F69B303722014491FBF2F0A0F158
:100CF000800502FB10141B3C02D56442012000E079
:100D00000020DFF890A080460027FA44AAF1BA0A32
:100D10000DE0E00709D03246684607EB47010AEBD1
:100D2000810100F02EFB8DE8070064107F1C002C71
:100D3000EFD1184F7F44A83F18E0E80714D007EB25
:100D400004100DF1180A90E80E008AE80E00C06841
:100D5000F04201D198190890324606A903A800F084
:100D600010FB03AB83E807006D10641C002DE4D179
:100D700032466946B8F1000F03A802D000F0EDFA40
:100D800001E000F0FEFAC9E90001C9F808200AB044
:100D9000BDE8F08734950000007B00F080007047CC
:100DA0007546FFF7E7FEAE4605006946534620F05C
:100DB0000700854618B020B5FFF7A0FABDE820402F
:100DC0004FF000064FF000074FF000084FF0000B07
:100DD00021F00701AC46ACE8C009ACE8C009ACE8BA
:100DE000C009ACE8C0098D4670470446AFF30080E7
:100DF0002046FFF748FA00004FF0013C50F8042B62
:100E000051F8043B9A4221D1A2EB0C03934313EA1D
:100E1000CC1317D150F8042B51F8043B9A4215D14A
:100E2000A2EB0C03934313EACC130BD150F8042B21
:100E300051F8043B9A4209D1A2EB0C03934313EA05
:100E4000CC13DBD04FF00000704700BFD01A01BABE
:100E5000B1FA81F101F0180122FA01F0CB40C1F1A1
:100E60002001DBB2C0B2C01A2CFA01F3D11A9143AF
:100E700011EAC311E6D170475FEA400C08BF91F058
:100E8000000F4FEA8C234FEAC12243EA51514FEA47
:100E90001C5018BF00F5F0404FEA300018BF41F079
:100EA00000415FEA6C5C00F02980BCF1FF3F08BFA5
:100EB00040F080407047130C06BF12044FF0100C36
:100EC0004FF0000C130E04BF12020CF1080C130FAC
:100ED00004BF12010CF1040C930F04BF92000CF13B
:100EE000020CD30F04BF52000CF1010C11464FF05D
:100EF0000002A0F11F00A0EB0C00704711F0004FA2
:100F000008BF704731F000413FF4D5AF0B0C06BF6E
:100F100009044FF0100C4FF0000C0B0E04BF090237
:100F20000CF1080C0B0F04BF09010CF1040C8B0F22
:100F300004BF89000CF1020CCB0F04BF49000CF177
:100F4000010CCCF12003A0EB0C0022FA03F302FA0F
:100F50000CF241EA030100F10100704720F07F4CE0
:100F600080EA030023F07F47ACEB070303F57C53D3
:100F700000F0004003F1FF032DE980494FEA154BD3
:100F800009B44FEA144325EA0B4E24EA03480FF252
:100F9000042606EB132749083E785FEA320203FB7A
:100FA0000667C7F5000707FB06F64FEA54374FEA16
:100FB000D64606F1020607FB066CCCF1005C4FEA50
:100FC0001C472CEA074C07FB06F40CFB06F504EB68
:100FD00015464FEA961634BF00204FF000404FEA06
:100FE000D13706FB07FC4FEA1C4C0CFB0BF7D21B5E
:100FF00003FB0CF761EB07010CFB0EF7B0EB0740AE
:1010000072EB17420CFB08F734BFA2EB0742B2EBBE
:10101000074261EB17414FEA0C444FEA910706FB88
:1010200007FC4FEA1C4C0CFB0BF7B0EBC74072EB14
:10103000573203FB0CF734BFA2EBC742B2EBC742F7
:1010400061EB57310CFB0EF7B0EBC70072EB577238
:101050000CFB08F734BFA2EBC702B2EBC70261EB8F
:101060005771039F4FEA816141EA921104EBCC046E
:101070004FEAD1374FEA826206FB07FC42EA901240
:101080004FEA80604FEA1C4C0CFB0BF7D21B03FBB2
:101090000CF761EB07010CFB0EF7B0EB074072EBAE
:1010A00017420CFB08F734BFA2EB0742B2EB074232
:1010B00061EB17414FEA8C554FEA910704EB9C24F2
:1010C00006FB07FC4FEA1C4C0CFB0BF7B0EBC740D0
:1010D00072EB573203FB0CF734BFA2EBC742B2EB03
:1010E000C74261EB57310CFB0EF7B0EBC70072EB58
:1010F00057720CFB08F734BFA2EBC702B2EBC70272
:1011000061EB577115EB4C254FEA816141EA921171
:101110004FEA82624FEAD13742EA901206FB07FC9F
:1011200044F100044FEA80604FEA1C4C0CFB0BF7C3
:10113000D21B03FB0CF761EB07010CFB0EF7B0EBC6
:10114000074072EB17420CFB08F734BFA2EB0742D3
:10115000B2EB074261EB174115EB1C154FEA8131E9
:1011600041EA92414FEA823242EA90424FEA8030AD
:101170004FEA0C7644F1000448EA03434EEA0B4878
:101180004FF0000EB2EB080C71EB030724BF624670
:1011900039464EEB0E0E4FF0000B001852414941FC
:1011A0004BEB0B0BB2EB080C71EB03077BF1000B65
:1011B00024BF624639464EEB0E0E4FF0000B00186E
:1011C000524149414BEB0B0BB2EB080C71EB03079F
:1011D0007BF1000B24BF624639464EEB0E0E51EAFE
:1011E000020718BF46F0010616EB0E7655F1000215
:1011F00054F1000103D5BDE88901BDE80088BDE8D0
:101200008901B619BDE80048524141EB0101A3F143
:101210000103704780807F7E7D7C7B7A797877764A
:1012200076757473727171706F6E6E6D6C6C6B6AC3
:101230006A69686867666665646463636261616061
:10124000605F5F5E5E5D5D5C5C5B5B5A5A595958DE
:101250005857575656555555545453535252525148
:10126000515050504F4F4F4E4E4D4D4D4C4C4C4B9E
:101270004B4B4A4A4A4949494848484747474746E5
:101280004646454545444444444343434342424221
:1012900042414141002B26D4770021D01CB54FEAB2
:1012A000370703B44FF010004FF010014FF000006B
:1012B0000FBC0BF1010BBDE81040BBF1010F08BFE3
:1012C0005FEA170722BF12F1010211F101014FF08D
:1012D000004143F1000300F0004043EA0000704782
:1012E000F9D35708DAE746EA064613F1400F4FEA0A
:1012F00016461FDD13F1200FDFBF16430A460021FB
:1013000020335B42C8D0C3F1200746EA064602FA02
:1013100007F74FEA164646EA0706C3F1200722FA06
:1013200003F201FA07F721FA03F14FF0000342EA52
:101330000702B1E746EA020646EA06464FEA1646C3
:1013400046EA0106BCBF46EA0646360C4FF00003EB
:101350004FF000024FF000019EE72DE9C048934690
:1013600030B491E8380007C831EA400C48BF34EA8D
:10137000430C03D5FFF7F2FDFFF78CFFF0BCBDE88F
:1013800000882DE9C048934630B491E8380007C87A
:1013900010F0804F08BF13F0804F03D100F005F824
:1013A000FFF778FFF0BCBDE8008820F07F4780EAB7
:1013B000030023F07F4C07EB0C03A3F57C5300F0F4
:1013C0000040A3F1FE0392F0000F00F0B38095F00F
:1013D000000F00F077802DE901494FEA11404FEAF4
:1013E000144621EA004800FB06FC24EA064708FBF5
:1013F00006F607FB08F800FB07F718EB06484CEB6E
:10140000164C4FEA124B18EB07484FEA15464CEBC7
:10141000174022EA0B4E0BFB06FC25EA06470EFBA3
:1014200006F607FB0EFE0BFB07F71EEB064E4CEB1A
:10143000164C4FF000061EEB074E4CEB174B18EB0B
:101440000B0840F1000018EB0E0B58EB000840F1C0
:1014500000008F1A4FF000013CBFC943661B14BF48
:10146000B5EB040C00213CBFC943F61B4FEA1744FF
:101470004EEA8E0E27EA04454FEA1C4704FB07623A
:101480002CEA074C05FB07F70CFB05F604FB0CFCEC
:1014900016EB074642EB174216EB0C4642EB1C429A
:1014A0001BEB060658EB0202414146EA9E0601D5B7
:1014B000BDE80189B619524141EB0101A3F10103D5
:1014C000BDE801894FEA14454FEA114724EA054671
:1014D00021EA074C05FB07F406FB07F70CFB06F1B6
:1014E00005FB0CFC11EB074144EB17444FEA124794
:1014F00011EB0C4144EB1C4422EA074C05FB07F2BC
:1015000006FB07F70CFB06F605FB0CFC16EB074683
:1015100042EB174216EB0C4642EB1C456A1854F19D
:10152000000148BF7047B619524141EB0101A3F1D8
:101530000103704795F0000F37D04FEA11424FEA90
:10154000144721EA024624EA074C02FB07F106FB96
:1015500007F70CFB06F402FB0CFC14EB074441EB11
:1015600017414FEA154714EB0C4441EB1C4125EAA7
:10157000074C02FB07F506FB07F70CFB06F602FB20
:101580000CFC16EB074645EB174516EB0C4645EBF6
:101590001C42121951F1000148BF7047B61952415F
:1015A00041EB0101A3F1010370474FEA14454FEAF3
:1015B000114724EA054621EA074C05FB07F106FB23
:1015C00007F70CFB06F24FF0000605FB0CFC12EBD4
:1015D000074241EB174112EB0C4251EB1C4148BF53
:1015E0007047921841EB0101A3F10103704721B14B
:1015F000826842F00102826003E0826822F0010208
:10160000826070470021084A1168084A1140D0E9F9
:1016100000231A4383681A43C3681A431143044AD8
:10162000C2F804137047000004230140E030FCFFBF
:101630000020014000B59BB00121880501F042FD6A
:101640000121042001F03EFD0121080201F06AFDA4
:10165000002002904D4803904D48049000200590D2
:1016600004200690002007904FF48060089040000E
:10167000099080000A9040110B9040020C900020CD
:101680000D9001200E9000200F90109002A941486B
:1016900001F012F801213F4800F0FCFE012000900B
:1016A00003208DF8040000208DF8070069463A48B1
:1016B00001F04FFA0220009003208DF80400002072
:1016C0008DF807006946344801F043FA0420009081
:1016D00003208DF8040000208DF8070069462E488D
:1016E00001F037FA0820009003208DF80400002054
:1016F0008DF807006946284801F02BFA0020119068
:1017000012901390149011A8FFF77CFF0020159001
:1017100001208DF858008DF859000020179018907E
:10172000199004208DF8680015A918484C3800F06D
:101730004BF8002301220A2114484C3800F06EF8BF
:10174000002302220B2111484C3800F067F80023D7
:1017500003220C210D484C3800F060F800230422CD
:101760000D210A484C3800F059F8012107484C383F
:1017700000F01FF8012105484C3800F00FF8012156
:1017800002484C38FFF733FF1BB000BD4C2001402E
:1017900026020020106402400008024021B1826845
:1017A00042F48072826003E0826822F48072826078
:1017B000704721B1826842F40072826003E082685F
:1017C00022F400728260704730B502460020002388
:1017D0005068104C20400D790C6844EA05242043E1
:1017E000506090680C4C2040D1E903542C438D6824
:1017F0002C434D7944EA450420439060D06A20F49C
:1018000070000C7D641EE4B2234340EA0350D062B2
:1018100030BD0000FFFEFFFCFDF7FFC0F0B5044641
:101820000D4600200021092D11DDE068A5F10A0612
:1018300006EB4607072606FA07F18843A5F10A06D4
:1018400006EB460603FA06F10843E0600CE0206967
:1018500005EB4507072606FA07F1884305EB450621
:1018600003FA06F108432061072A0FDA606B561E5F
:1018700006EB86071F2606FA07F18843561E06EB7D
:10188000860605FA06F10843606322E00D2A0FDAA6
:10189000206BD61F06EB86071F2606FA07F1884342
:1018A000D61F06EB860605FA06F10843206310E012
:1018B000E06AA2F10D0606EB86071F2606FA07F17D
:1018C0008843A2F10D0606EB860605FA06F10843E9
:1018D000E062F0BD816841F08041816070470000A6
:1018E00002A0FEF71FFD00BFFEE700004275734631
:1018F00061756C745F48616E646C65720D0A0000FE
:1019000070B504460D4600F007F800F02DF82946A2
:10191000204600F0FDF870BD1CB50121084601F01D
:10192000D1FB0121480601F0DDFB09220C210D4805
:1019300001F057F909220B210A4801F052F94FF43E
:10194000C050009002208DF8040003208DF805009F
:1019500000208DF806008DF807006946014801F067
:10196000F8F81CBD0000024008B514208DF80000F6
:1019700005208DF801008DF8020001208DF803008C
:10198000684601F003FA13208DF8000005208DF859
:1019900001008DF8020001208DF80300684601F077
:1019A000F5F908BD10B586B00221494800F0CEFA1D
:1019B00000287DD00221464800F0D4F9454944482A
:1019C00000F0B4F901AA0021414800F0E2FB0198BF
:1019D000B0F5007F18D90198B0F5027F14D89DF8B2
:1019E00012409DF8113044EA03231AB29DF81030DA
:1019F0009DF80F4043EA0421019BA3F20123364CDA
:101A000004EBC30002F0C1FF40F2032101988842B9
:101A100008D19DF812109DF8110041EA002000B293
:101A20002E49088040F205210198884215D19DF881
:101A300010009DF80F1040EA0120294908809DF808
:101A400012109DF8110041EA002000B225490880DB
:101A50000846B0F900002449088040F201210198AD
:101A6000884208D19DF812109DF8110041EA00202B
:101A700000B21E49088040F202210198884208D134
:101A80009DF812109DF8110041EA002000B217499C
:101A9000488040F207210198884208D19DF8121031
:101AA0009DF8110041EA002000B21149088000E0D1
:101AB0000CE00198B0F5027F08D19DF812109DF856
:101AC000110041EA002000B20949488006B010BD6B
:101AD0000064004003000012900600201E02002057
:101AE0001202002010020020140200201602002022
:101AF0001A02002010B50121044800F027FA18B19D
:101B00000121024800F02EF910BD000000640040E1
:101B100030B587B005460C46244800F077F904A894
:101B200000F0AFFB00208DF816008DF817008DF83F
:101B300018008DF819008DF81A0001208DF81B008F
:101B400000208DF812008DF8130008208DF8140085
:101B500003208DF81500ADF8100004A9134800F01B
:101B60008EFA00208DF80A008DF80B0001208DF808
:101B70000C00ADF80050ADF802400020ADF80400B4
:101B8000ADF80600ADF8080001208DF80D0068469C
:101B900000F058F901220221044800F067FA0122FE
:101BA0001146024800F062FA07B030BD0064004000
:101BB00030B585B002214D4800F0C8F900287DD02D
:101BC00002214A4800F0CEF84949484800F0AEF8F2
:101BD0006A460021454800F0DCFA9DF8080000281C
:101BE0006CD19DF80A0008287ED1002416E04149F6
:101BF00031F81410009888420FD19DF80E109DF80E
:101C00000D0041EA002000B23B4921F8140001EB2D
:101C100044000A2104F088FA02E0641C042CE6D394
:101C200000BF0098B0F5007F18D90098B0F5027F8A
:101C300014D89DF80E509DF80D3045EA03231AB2D2
:101C40009DF80C309DF80B5043EA0521009BA3F250
:101C500001232A4D05EBC30002F097FE0098B0F572
:101C6000007F11D90098B0F5027F0DD89DF80C20A7
:101C70009DF80B3042EA0321009AA2F20122204B88
:101C800003EBC20002F09FFE40F20521009888425B
:101C900013D11B484038416E006E4FF4005202FBD6
:101CA000001000B2174908809DF80B00000200B236
:101CB0009DF80C1008431449088000E014E040F23D
:101CC0000621009888420FD19DF80C009DF80B105A
:101CD00040EA01210A484038806E4FF4005202FB6E
:101CE000001000B20949088005B030BD006800400E
:101CF000030000121801002030010020D00600204F
:101D000050070020A400002024020020A60000208C
:101D100010B50121044800F019F918B10121024859
:101D200000F020F810BD00000068004000220C4BBD
:101D3000994202D10023836111E0C1F3130201F043
:101D400000730BB1C2600AE001F080630BB1026165
:101D500005E001F000630BB1826000E04260704773
:101D60007000F030B1F5007F3AD00FDC202928D088
:101D700006DC01291CD004291DD0082940D11DE012
:101D8000402921D0B1F5807F3AD126E0B1F5004F4E
:101D900031D006DCB1F5806F25D0B1F5006F2FD1C1
:101DA00024E0B1F5803F12D0B1F5003F28D111E019
:101DB000154A826025E00822C26022E01022C2603B
:101DC0001FE0082202611CE01022026119E00822D3
:101DD000426016E01022426013E00422426010E0EC
:101DE000042242600DE0042242600AE00022826187
:101DF0000422426005E0002282610422426000E089
:101E000000BF00BF704700000101010010B504468B
:101E10000B48844209D10121480601F073F90021E1
:101E20004FF0007001F06EF908E00121880601F022
:101E300069F900214FF0806001F064F910BD0000E5
:101E40000064004010B50021837A012202FA03F1F8
:101E50003D4A126842F001023B4B1A603A4A1C327A
:101E600012688A43384B1C331A60027BCAB9364A5F
:101E70000C3212688A43344B0C331A604288C38890
:101E800042EA0343304A4032847A42F834300288CE
:101E9000838842EA03432C4A4032847A02EBC4022C
:101EA0005360027B012A19D1274A0C3212680A4377
:101EB000254B0C331A604288038842EA0343224AC6
:101EC0004032847A42F83430C288838842EA03433D
:101ED0001D4A4032847A02EBC4025360C27A3AB996
:101EE000194A121D12688A43174B1B1D1A6006E01F
:101EF000154A121D12680A43134B1B1D1A600289F2
:101F000032B9114A143212688A430F4B14331A60E3
:101F10000289012A06D10C4A143212680A430A4B7C
:101F200014331A60427B012A06D1074A1C32126818
:101F30000A43054B1C331A60034A126822F001025F
:101F4000014B1A6010BD00000066004070B50446E9
:101F50000D46002660692840002871D0B5F5807FC5
:101F60005CD010DC082D35D006DC012D20D0022DF0
:101F700024D0042D72D127E0102D31D0202D35D062
:101F8000402D6BD138E0B5F5004F60D009DCB5F5D8
:101F9000007F49D0B5F5806F4CD0B5F5006F5DD1AD
:101FA0004FE0B5F5803F2DD0B5F5003F56D12FE07D
:101FB000A0682D4900F008FA064651E0E0680321C8
:101FC00000F002FA06464BE0E068082100F0FCF958
:101FD000064645E0E068102100F0F6F906463FE0CD
:101FE0002069032100F0F0F9064639E02069082154
:101FF00000F0EAF9064633E02069102100F0E4F928
:1020000006462DE06068082100F0DEF9064627E06C
:102010006068102100F0D8F9064621E0A06901218E
:1020200000F0D2F906461BE0A069022100F0CCF9CD
:10203000064615E0A069042100F0C6F906460FE047
:102040000FE0A069702100F0BFF9064608E0606863
:10205000042100F0B9F9064602E0FFE7002600BFC0
:1020600000E00026304670BD010101001AB143694D
:102070000B43436102E043698B434361704730B5D2
:10208000024600200023146824F00204146014683F
:1020900044F00104146000E05B1C546804F0010487
:1020A0001CB94FF6FF74A342F6D1546804F0010442
:1020B0000CB900206CE08C79012C04D1146844F038
:1020C0008004146003E0146824F080041460CC7968
:1020D000012C04D1146844F04004146003E0146837
:1020E00024F0400414600C7A012C04D1146844F0EC
:1020F0002004146003E0146824F0200414604C7A77
:10210000012C04D1146844F01004146003E0146836
:1021100024F0100414608C7A012C04D1146844F06B
:102120000804146003E0146824F008041460CC7AF6
:10213000012C04D1146844F00404146003E0146812
:1021400024F0040414608C78A407CD7844EA056474
:102150000D7944EA05444D7944EA05540D886D1E15
:102160002C43D461146824F001041460002300E0BF
:102170005B1C546804F001041CB14FF6FF74A342C9
:10218000F6D1546804F001040CB1002000E00120F5
:1021900030BD10B500F5D87303EB01131B6803F0D5
:1021A00004031372137A53B900F5D87303EB0113C8
:1021B0001B6840F2FF7404EA5353136009E000F512
:1021C000D87303EB01131B686FF0604404EAD30378
:1021D000536000F5D87303EB01131B6803F002038F
:1021E000537200F5D87303EB01135B6803F00F0320
:1021F000937200F5D87303EB01135B681B0AD37469
:1022000000F5D87303EB01139B68D37200F5D87304
:1022100003EB01139B681C0A147300F5D87303EBDE
:1022200001139B681C0C547300F5D87303EB011366
:102230009B681B0E937300F5D87303EB0113DB68E7
:10224000D37300F5D87303EB0113DB681C0A147415
:1022500000F5D87303EB0113DB681C0C547400F514
:10226000D87303EB0113DB681B0E937421B9C368A9
:1022700043F02003C36003E0036943F020030361DC
:1022800010BD00218171C171017241728172C172F0
:102290008170C1700321017102214171012101800E
:1022A000704710B502460020936803F08063B3F1D5
:1022B000806F00D110E0936803F00063B3F1006F0A
:1022C00001D1012008E0936803F08053B3F1805FEF
:1022D00001D1022000E00420042874D002F5C0736C
:1022E00003EB00131B6803F0010402F5C07303EB5A
:1022F00000131C600B7A7BB94B7A0C8843EA445379
:1023000002F5C07404EB00142468234302F5C07482
:1023100004EB0014236010E00B7A4C6843EAC4031A
:102320004C7A234302F5C07404EB00142468234361
:1023300002F5C07404EB001423608B7A03F00F03E2
:102340008B7202F5C07303EB00135B6823F00F047C
:1023500002F5C07303EB00135C6002F5C07303EB7E
:1023600000135B688C7A234302F5C07404EB0014FD
:1023700063608B7B1C064B7B44EA03440B7B44EA83
:102380000323CC7A234302F5C07404EB0014A3604A
:102390008B7C1C064B7C44EA03440B7C44EA0323FD
:1023A000CC7B234302F5C07404EB0014E36002F518
:1023B000C07303EB00131B6843F0010402F5C07304
:1023C00003EB00131C6010BD0246002002EA01036B
:1023D0000BB1012000E000207047000010B50B4950
:1023E0000B4800F019F980B10849094800F038F8A5
:1023F000074800F007F90749087007480078401CB3
:102400000549087001200549087010BD00880010BA
:1024100028600240310200203002002032020020F9
:1024200010B500BF09480168094802F05FFE00BF0F
:102430000849094800F0F0F830B10649064800F0B4
:102440000FF806480068804710BD000068020020B1
:102450009001002000802010406402408001002094
:102460000246094B9A4201D2084801E0064810385A
:1024700001F000531BB1064B0B40C36002E0044B5C
:102480000B4083607047000010640240006002400F
:102490007D0F7D0F21B1026842F00102026003E06E
:1024A000026822F00102026070470000016821F01A
:1024B000010101600021016041608160C160016132
:1024C000212141614A49884204D13D21484A103ABC
:1024D00091608CE046491831884205D14FF474610F
:1024E000434A103A916082E041493031884205D137
:1024F0004FF474113E4A103A916078E03C494831FB
:10250000884205D14FF07461394A103A91606EE00B
:1025100037496031884204D13649354A103AD16092
:1025200065E033497831884204D13349304A103A62
:10253000D1605CE02E499031884204D12F492C4A69
:10254000103AD16053E02A49A831884205D14FF0B2
:102550003D51274A103AD16049E02949884204D1C7
:102560003D21274A083A116041E025491831884247
:1025700005D14FF47461224A083A116037E02049CE
:102580003031884205D14FF474111D4A083A116068
:102590002DE01B494831884205D14FF07461184A3B
:1025A000083A116023E016496031884204D111498C
:1025B000134A121F11601AE011497831884204D180
:1025C0000D490F4A121F116011E00D4990318842E8
:1025D00004D10A490A4A121F116008E00849A831CB
:1025E000884204D14FF03D51054A121F11607047D7
:1025F000106002403D000020400F002000003D2000
:1026000010640240014600200A6802F400220AB168
:10261000012000E00020704770B502460020002431
:102620000025124EB24201D2114B01E00F4B103B7C
:10263000104E0E4036B11E2606EAD124166806EA70
:10264000040502E0566906F0800501F000560EB15F
:102650005C6800E01C68084E344004EA010616B1CC
:102660000DB1012000E0002070BD000010640240A8
:10267000006002403C0F3C0F7D0F7D0F10B501F054
:1026800080034BB122B1436943F08003436103E00F
:10269000436923F08003436180290BD02AB103688A
:1026A00001F01E042343036004E0036801F01E04EC
:1026B000A343036010BD000010B500220268134B55
:1026C0001A40CC680B6823434C6923438C6923432D
:1026D000CC6923430C6A23434C6A23438C6A23430B
:1026E0004C6B23438C6B23431A430260426922F0F4
:1026F0000702D1E90B3423431A4342610B6943605B
:102700004B6883608B68C36010BD00003F801CF085
:1027100002A0FDF707FE00BFFEE7000044656275FA
:10272000674D6F6E5F48616E646C65720D0A0000E4
:1027300010B5074A0521074800F0C4F904480068AD
:1027400005490968884201D000BFFEE710BD0000BE
:102750006005002000000A081401002010B523487D
:10276000008881B222A0FDF7DDFD2048416827A046
:10277000FDF7D8FD2DA0FDF7D5FD1C4880682E493A
:10278000084420B1012806D002280CD107E02BA074
:10279000FDF7C8FD0BE02BA0FDF7C4FD07E02BA063
:1027A000FDF7C0FD03E02CA0FDF7BCFD00BF00BF9E
:1027B0002BA0FDF7B7FD2BA0FDF7B4FD0B48C068BB
:1027C0002B49084428B1012807D12AA0FDF7AAFD0A
:1027D00007E02BA0FDF7A6FD03E01FA0FDF7A2FD7B
:1027E00000BF00BF1EA0FDF79DFD10BD60050020CD
:1027F000666C6173682064617461207665727369C8
:102800006F6E3A2025640D0A00000000736F667435
:102810007761726520646F776E6C6F6164206461AC
:1028200074653A2025640D0A00000000636172207F
:1028300069643A2000000000FFFFCBED736F6C6409
:10284000696572006865726F00000000656E6769F7
:102850006E65657200000000756E6B6E6F776E00BE
:102860000D0A000070636220747970653A200000E0
:10287000FFFFDEBC72656374616E676C650000000B
:1028800073717561726500007FB506460C4615468A
:102890006A460521134800F015F9134800681349EA
:1028A0000860084646608460C560009809688842F0
:1028B0000ED10E4901984968884209D10B49029806
:1028C0008968884204D109490398C968884207D0B9
:1028D000482000F0E5F8054A0521024800F0FFF81D
:1028E0007FBD000000000A081401002060050020E0
:1028F00001490860704700000C3C024070B5044676
:102900000A460026092502B909E0012A01D116026A
:1029100005E0022A01D1160201E04FF4407600F0F2
:102920009FF80546092D28D11548006820F440700D
:10293000134908600846006830430860084600688C
:1029400020F0F80008600846006844F002010843DF
:102950000B4908600846006840F48030086000F0C9
:102960007FF805460648006820F002000449086028
:102970000846006820F0F8000860284670BD000096
:10298000103C024009201349096801F48031B1F577
:10299000803F01D101201CE00E49096801F01001BF
:1029A00009B1062015E00B49096801F4807109B1ED
:1029B00002200EE00749096801F0E00109B1072093
:1029C00007E00449096801F0020109B1082000E0AC
:1029D000092070470C3C02400348006840F000406A
:1029E0000149086070470000103C024030B50246C3
:1029F0000C46092500F034F80546092D19D10E487A
:102A0000006820F440700C4908600846006840F4F3
:102A1000007008600846006840F00100086014601B
:102A200000F01EF805460448006820F00100024945
:102A30000860284630BD0000103C02400548006890
:102A400000F0004028B1044802490C3908600348EE
:102A500008607047103C024023016745AB89EFCD09
:102A600008B509200090FFF78DFF009002E0FFF706
:102A700089FF00909DF800000128F8D09DF8000023
:102A800008BD000002A0FDF74DFC00BFFEE70000FE
:102A90004650555F48616E646C65720D0A00000017
:102AA00010B50446FFF7CAFFF320FFF721FF02210C
:102AB0002046FFF723FF092801D000BFFEE7FFF7FC
:102AC0008BFF10BD10B50B46002105E0046842F8ED
:102AD0002140001D4C1CE1B29942F7DB10BD2DE9ED
:102AE000F04705460E461746FFF7A8FFF320FFF70D
:102AF000FFFE284600F0A0F81FFA80F8042101FB31
:102B0000065000F099F81FFA80F944460AE00221C5
:102B10002046FFF7F3FE092801D000BFFEE704F1CD
:102B2000080084B24C45F2DB00240CE057F8241076
:102B30002846FFF75BFF092801D12D1D01E000BFEA
:102B4000FEE7601C84B2B442F0DBFFF745FFBDE84E
:102B5000F087F0B50A4600210023002400BF3DE0C5
:102B6000012505FA01F3156805EA03049C4234D1F6
:102B700005684F000326BE40B543056015794E0039
:102B8000B5400668354305601579012D02D01579E9
:102B9000022D16D185684F000326BE40B5438560DF
:102BA00055794E00B54086683543856045680126F5
:102BB0008E40B5434560456896798E40B6B2354340
:102BC0004560C5684F000326BE40B543C560D57952
:102BD0004E00B540C6683543C560491C1029BFD3B7
:102BE000F0BDF0B5002300244D07ED0E02FA05F309
:102BF000CE1000F1200555F826504E07F70E0F268F
:102C0000BE40B543CF1000F1200646F82750CE1045
:102C100000F1200555F8265045EA0304CE1000F1D6
:102C2000200545F82640F0BD418370470183704779
:102C300042694A4042617047014600202C4A914255
:102C400003D2B1F1006F00D350E02A4A914204D27E
:102C5000274A914201D3082048E0274A914204D2F2
:102C6000244A914201D3102040E0244A914204D2E8
:102C7000214A914201D3182038E0214A914204D2DE
:102C80001E4A914201D3202030E01E4A914204D2D4
:102C90001B4A914201D3282028E01B4A914204D2CA
:102CA000184A914201D3302020E0184A914204D2C0
:102CB000154A914201D3382018E0154A914204D2B6
:102CC000124A914201D3402010E0124A914204D2AC
:102CD0000F4A914201D3482008E00F4A914204D2A2
:102CE0000C4A914201D3502000E058207047000068
:102CF000004000080080000800C000080000010833
:102D0000000002080000040800000608000008088F
:102D100000000A0800000C0800000E0804A0FDF7DF
:102D200001FB0848016808A0FDF7FCFA00BFFEE7B8
:102D3000486172644661756C745F48616E646C656D
:102D4000720D0A002CED00E025780D0A000000004D
:102D500002A0FDF7E7FA00BFFEE700004D656D4DEC
:102D6000616E6167655F48616E646C65720D0A0033
:102D700002A0FDF7D7FA00BFFEE700004E4D495F05
:102D800048616E646C65720D0A00000070B5002128
:102D900000230F22C4781CB3174C246804F4E064A9
:102DA000C4F5E064C4F30721C1F10404E3B20A41AD
:102DB00044789C40E1B28478144021430C07210EF2
:102DC0000E4C05786155047804F01F050124AC40D1
:102DD00005786D11AD0005F1E025C5F8004109E069
:102DE000047804F01F050124AC40054D06787611E7
:102DF00045F8264070BD00000CED00E000E400E066
:102E000080E100E002490143024A1160704700007E
:102E10000000FA050CED00E080ED010AC0ED020AA9
:102E200080ED031A9FED092A80ED042A9FED072A01
:102E300080ED052A9FED052A80ED062AC0ED001AD7
:102E40009FED022A80ED072A704700000000000075
:102E500080ED010AC0ED020A80ED031A9FED072AFA
:102E600080ED052A9FED052A80ED062A9FED032AB5
:102E700080ED042AC0ED001A704700000000000039
:102E8000B0EE401A9FED383AB0EE430A31EE603AA8
:102E900080ED053A90ED043AD0ED053A33EE233A51
:102EA00080ED043A90ED053AD0ED063A33EE633A00
:102EB000F0EE432A90ED053AF0EE431A90ED043A15
:102EC000B0EE432A90ED053A80ED063AB3EE093AAA
:102ED000B4EEC31AF1EE10FA0AD2BBEE093AB4EE20
:102EE000C31AF1EE10FA03DD9FED1F3A80ED043AAC
:102EF00090ED013A23EE213AD0ED023A02EE233A68
:102F0000D0ED033A02EEA33AB0EE430A90ED003A58
:102F1000B1EE433AB4EEC03AF1EE10FA02D2B0EE9E
:102F2000403A03E090ED003AB1EE433AD0ED003A7A
:102F3000B4EEE33AF1EE10FA10D290ED003AB1EEB1
:102F4000433AB4EEC03AF1EE10FA02D2B0EE403A93
:102F500006E090ED003AB1EE433A01E090ED003A20
:102F6000B0EE430A7047000000000000B0EE401AC7
:102F700031EE600A80ED040A90ED040A90ED053A06
:102F800030EE430AF0EE401A90ED040AB0EE402A0B
:102F900090ED040A90ED053AF0EE003A03EEC30A14
:102FA00090ED063A30EE030AF0EE402A90ED010A69
:102FB00020EE210A90ED023A03EE020A90ED033A68
:102FC00003EE220A90ED073A30EE030A80ED070A7D
:102FD00090ED050A80ED060A90ED040A80ED050AE1
:102FE00090ED070A90ED003AB1EE433AB4EEC30A11
:102FF000F1EE10FA02DD90ED070A03E090ED000A11
:10300000B1EE400A90ED003AB4EEC30AF1EE10FAC8
:1030100012D290ED070A90ED003AB1EE433AB4EEC9
:10302000C30AF1EE10FA02DD90ED070A06E090ED1A
:10303000000AB1EE400A01E090ED000A80ED070AB7
:1030400090ED070A7047000000B5F0EE402AB0EEA0
:10305000603AF0EE413AB0EE614A00210DE0084AD4
:1030600002EB4110F0EE441AB0EE631AF0EE430AA0
:10307000B0EE620AFFF7D0FE491C0429EFD300BD71
:10308000E005002000B5F0EE402AB0EE603AF0EE28
:10309000413AB0EE614A00210FE0C1EBC102084B9A
:1030A00003EB8200F0EE441AB0EE631AF0EE430A2E
:1030B000B0EE620AFFF7CCFE491C0429EDD300BD37
:1030C0007005002029B1064A12680243044B1A60B9
:1030D00004E0034A12688243014B1A607047000003
:1030E0003038024029B1064A12680243044B1A6084
:1030F00004E0034A12688243014B1A6070470000E3
:103100004038024029B1064A12680243044B1A6053
:1031100004E0034A12688243014B1A6070470000C2
:103120002038024029B1064A12680243044B1A6053
:1031300004E0034A12688243014B1A6070470000A2
:103140004438024029B1064A12680243044B1A600F
:1031500004E0034A12688243014B1A607047000082
:1031600024380240F0B50021002200240225002668
:103170000223324F3F6807F00C0121B1042905D02A
:10318000082937D105E02E4F076036E02D4F076044
:1031900033E02A4F3F1F3F68C7F38056274F3F1F3A
:1031A0003F6807F03F036EB1264FB7FBF3F7DFF838
:1031B0008CC0ACF1040CDCF800C0CCF3881C07FB1D
:1031C0000CF40CE01E4FB7FBF3F7DFF870C0ACF166
:1031D000040CDCF800C0CCF3881C07FB0CF4174F80
:1031E0003F1F3F68C7F301477F1C7D00B4FBF5F725
:1031F000076002E0124F076000BF00BF0F4F3F683B
:1032000007F0F0010909104F7A5C0768D740476062
:103210000A4F3F6807F4E051890A0B4F7A5C476810
:10322000D7408760054F3F6807F46041490B064F60
:103230007A5C4768D740C760F0BD0000083802409C
:103240000024F40040787D019402002040F2FF1138
:103250000160002101724172082181720021C17256
:103260000022027342738273C273027442748274C6
:103270007047000010B5044641F28830844202DCF9
:103280004042844201DA002010BD200A0449C8727D
:10329000084604730348FFF704F80120F4E7000030
:1032A000D00300200068004010B50446012C28D14E
:1032B0002A48B0F9000040F63401884209DA27486C
:1032C000B0F90000642804DD4FF6E040244908808E
:1032D0003EE02248B0F9000040F6340188420BDDA0
:1032E0001E48B0F9000041F6A471884204DA4FF498
:1032F0002F701B4908802BE04FF60C60184908809E
:1033000026E0022C03D100201549088020E0032C80
:103310001ED11248B0F9000041F65831884206DD4E
:103320004FF688200E49088001200E4908700D488C
:10333000007801280CD10948B0F90000B0F5965F7B
:1033400006DA6FF0C70006490880002005490870BA
:103350000348B0F90000FFF78DFF10BD24020020E4
:10336000F6000020F400002002A0FCF7DBFF00BF05
:10337000FEE700005356435F48616E646C65720D52
:103380000A0000000CB5002001900090344800684D
:1033900040F480303249086000BF3148006800F4D2
:1033A000003000900198401C0190009818B90198D5
:1033B000B0F5A04FF1D12A48006800F4003010B1F8
:1033C0000120009001E0002000900098012846D1E3
:1033D00023484030006840F0805021494031086067
:1033E0002048006840F440401E4908601C480830EE
:1033F00000681B49083108600846006840F4004036
:1034000008600846006840F4A05008601648091F8C
:103410000860081F006840F08070091F086000BF46
:103420000F48006800F000700028F9D040F20570E5
:103430000E4908600A480830006820F00300084977
:10344000083108600846006840F00200086000BFCC
:1034500003480830006800F00C000828F8D10CBDC3
:10346000003802400070004019544007003C024000
:1034700010B502480068804710BD000040020020DF
:1034800010B51548006840F47000134908601348EF
:10349000006840F001001149086000200F49083120
:1034A00008600E4800680E4908400C4908600D4845
:1034B000091D0860081F006820F48020091F0860AB
:1034C000002006490C310860FFF75CFF4FF00060F8
:1034D00001498039086010BD88ED00E000380240E5
:1034E000FFFFF6FE10300024F0B50C461546002113
:1034F0000022068C4FF6FE773E400684018B028C3C
:103500004FF60C7631407E1C06EA03162E433143FB
:103510004FF6F576324044F00106324301830284CF
:10352000F0BDF0B50C461546002100220026078CA0
:103530004FF6EF7C07EA0C070784018B028C4FF6ED
:10354000FF7707EA041640F6FF4739404FF6FF774A
:1035500007EA033739434FF6FF7707EA0527394370
:103560004FF65F773A4046F010073A4301830284F2
:10357000F0BDF0B50C461546002100220026078C50
:103580004FF6FF6C07EA0C070784818B028C4FF61D
:10359000FF7707EA04264FF60C7739404FF6FF779E
:1035A00007EA03172F4339434FF2FF573A4046F4D7
:1035B00080773A4381830284F0BDF0B50C4615460E
:1035C000002100220026078C4EF6FF7C07EA0C073C
:1035D0000784818B028C4FF6FF7707EA043640F6AA
:1035E000FF4739404FF6FF7707EA052739434FF683
:1035F000FF7707EA0337394345F6FF773A4046F449
:1036000080573A4381830284F0BD000000B58BB03F
:1036100001210220FFF766FD01210420FFF752FD82
:10362000C020069002208DF81C0000208DF81E009E
:1036300003208DF81D0000208DF81F0006A92448E6
:10364000FFF787FA022206212148FFF7CAFA022271
:1036500007211F48FFF7C5FA6320ADF820004FF49B
:10366000527009900020ADF82800ADF822008DF8C6
:103670002A0008A9174800F061FB6020ADF804009B
:103680000120ADF806000020ADF808000390ADF869
:1036900010004FF48070ADF8140001A90D4800F03F
:1036A000D5F901A90B4800F019FA0821094800F0E2
:1036B0000BFA0821074800F063FA0121054800F0E1
:1036C00084F80121034800F074F80BB000BD00003D
:1036D000000802400004004000B589B00121042028
:1036E000FFF700FD01210220FFF7ECFCC020019054
:1036F00003208DF8090002208DF8080001208DF8C4
:103700000A008DF80B0001A92048FFF722FA0222D7
:1037100006211E48FFF765FA022207211B48FFF722
:1037200060FA06A800F04CFB0A20ADF818004FF62E
:10373000FF7007900020ADF82000ADF81A0006A930
:10374000134800F0FBFA00231A460121104800F04C
:1037500013F903A800F068F91020ADF8140003A9CC
:103760000B4800F02AF90121094800F01FF8012256
:103770001146074800F061F900200549243108602E
:103780000121034800F015F809B000BD0004024013
:103790000008004021B1028842F08002028004E06B
:1037A00002884FF67F731A4002807047CA43028234
:1037B000704721B1028842F00102028004E00288D1
:1037C0004FF6FE731A400280704731B1B0F84420C2
:1037D00042F40042A0F8442005E0B0F84420C2F3CF
:1037E0000E02A0F84420704710B5044655488442A4
:1037F00008D101210846FFF7A5FC00210120FFF7B1
:10380000A1FC9DE0B4F1804F08D101210846FFF7EB
:1038100079FC00210120FFF775FC91E04A488442C1
:1038200008D101210220FFF76DFC00210220FFF7E3
:1038300069FC85E04548844208D101210420FFF756
:1038400061FC00210420FFF75DFC79E040488442E0
:1038500008D101210820FFF755FC00210820FFF7BF
:1038600051FC6DE03B48844208D101211020FFF754
:1038700049FC00211020FFF745FC61E036488442F6
:1038800008D101212020FFF73DFC00212020FFF777
:1038900039FC55E03148844208D101210220FFF76C
:1038A00051FC00210220FFF74DFC49E02C488442E6
:1038B00009D101210804FFF745FC00214FF48030B5
:1038C000FFF740FC3CE02748844209D1012148042D
:1038D000FFF738FC00214FF40030FFF733FC2FE0F6
:1038E0002148844209D101218804FFF72BFC0021E3
:1038F0004FF48020FFF726FC22E01C48844208D1C8
:1039000001214020FFF7FEFB00214020FFF7FAFBDA
:1039100016E01748844208D101218020FFF7F2FB0E
:1039200000218020FFF7EEFB0AE01248844207D115
:1039300001218015FFF7E6FB0021A015FFF7E2FB50
:1039400010BD0000000001400004004000080040DD
:10395000000C004000100040001400400004014032
:103960000040014000440140004801400018004070
:10397000001C004000200040F0B50C4615461E46D5
:103980000021002200230189028B038C4FF6F87777
:10399000394021434FF6FC473A4040F201173A4381
:1039A0004FF6DD773B404FF6FF7707EA06172F43C8
:1039B0003B43018102830384F0BD70B505460C468C
:1039C000208850B92389A28861882846FFF78CFD9A
:1039D000E188284600F085F925E0208804280AD1EE
:1039E0002389A28861882846FFF79BFDE188284645
:1039F00000F080F917E0208808280AD12389A288DE
:103A000061882846FFF7B5FDE188284600F07FF978
:103A100009E02389A28861882846FFF7CEFDE18866
:103A2000284600F07DF970BD002101804180012110
:103A300081800021C180018170471AB183890B43C5
:103A4000838102E083898B438381704770B50024B2
:103A500000220023058C4FF6FE7635400584028C4B
:103A60008388048B4FF68F752C40B51E2C400D8833
:103A70002C43751E2A408D892A434D882A43104DB8
:103A8000A84202D00F4DA84213D14FF6F7752A4035
:103A9000CD892A434FF6FB752A408D882A434FF67D
:103AA000FF652B404FF6FF552B400D8A2B434D8A67
:103AB0002B43838004838D684563028470BD0000BE
:103AC00000000140000401400A460021018B4FF62E
:103AD000F7731940114301837047000070B500244B
:103AE00000220023058C4FF6EF7635400584028CCA
:103AF0008388048B48F6FF752C404FF6FF452C4019
:103B00000D884FF6FF7606EA05252C434FF6DF7544
:103B10002A408D8906EA05152A434D8806EA0515CF
:103B20002A43154DA84202D0144DA8421DD14FF68C
:103B30007F752A40CD894FF6FF7606EA05152A43A0
:103B40004FF6BF752A408D8806EA05152A434FF6C1
:103B5000FF352B404FF2FF752B400D8A06EA850595
:103B60002B434D8A06EA85052B43838004838D68A9
:103B70008563028470BD0000000001400004014024
:103B80000A460021018B4FF2FF7319404FF6FF7375
:103B900003EA0223194301837047000070B5002433
:103BA00000220023058C4FF6FF6635400584028C09
:103BB0008388848B4FF68F752C404FF6FC752C4014
:103BC0000D882C434FF6FF552A408D894FF6FF761E
:103BD00006EA05252A434D8806EA05252A43154DA0
:103BE000A84202D0144DA8421DD14FF2FF752A40C1
:103BF000CD894FF6FF7606EA05252A434FF6FF35B5
:103C00002A408D8806EA05252A434EF6FF752B408B
:103C10004DF6FF752B400D8A06EA05152B434D8A9C
:103C200006EA05152B43838084838D68C56302846F
:103C300070BD000000000140000401400A46002160
:103C4000818B4FF6F7731940114381837047000051
:103C500070B5002200230024058C4EF6FF76354017
:103C60000584038C8488828B48F6FF752A404FF6C2
:103C7000FF452A400D884FF6FF7606EA05252A43C0
:103C80004DF6FF752B408D8906EA05352B434D888F
:103C900006EA05352B430A4DA84202D0094DA84239
:103CA00008D14BF6FF752C400D8A4FF6FF7606EAD9
:103CB00085152C43848082838D680564038470BDE0
:103CC00000000140000401400A460021818B4FF2B0
:103CD000FF7319404FF6FF7303EA022319438183F0
:103CE0007047028B4FF6F3731A400283028B0A432C
:103CF00002837047028B4FF2FF331A400283028B1C
:103D00004FF6FF7303EA01231A4302837047828B45
:103D10004FF6F3731A408283828B0A438283704783
:103D2000828B4FF2FF331A408283828B4FF6FF73F0
:103D300003EA01231A4382837047000000220288AD
:103D4000184B98420ED0184B98420BD0B0F1804FD0
:103D500008D0164B984205D0154B984202D0154B0F
:103D6000984204D14FF68F731A404B881A43124B76
:103D7000984207D0114B984204D04FF6FF431A40A7
:103D80000B891A4302804B68C3620B880385054B7D
:103D9000984202D0044B984201D18B7A03860123CA
:103DA000838270470000014000040140000400408D
:103DB00000080040000C00400010004000140040CB
:103DC0004FF0FF314160002101800181418081720B
:103DD0007047000010B500BF0A4801680A4801F0AA
:103DE00085F900BF40F22551084800F03CF938B190
:103DF00040F22551054800F08DF8054800688047DD
:103E000010BD000068020020E4010020004C0040CA
:103E1000B801002010B500BF0A4801680A4801F047
:103E200065F900BF40F22551084800F01CF938B18F
:103E300040F22551054800F06DF8054800688047BC
:103E400010BD000068020020F0010020005000407A
:103E5000BC01002010B500BF0A4801680A4801F003
:103E600045F900BF40F22551084800F0FCF838B190
:103E700040F22551054800F04DF80548006880479C
:103E800010BD000068020020C001002000100140A9
:103E9000AC01002010B500BF0A4801680A4801F0D3
:103EA00025F900BF40F22551084800F0DCF838B190
:103EB00040F22551054800F02DF80548006880477C
:103EC00010BD000068020020CC010020004400402A
:103ED000B001002010B500BF0A4801680A4801F08F
:103EE00005F900BF40F22551084800F0BCF838B190
:103EF00040F22551054800F00DF80548006880475C
:103F000010BD000068020020D801002000480040D9
:103F1000B401002010B50022002340F66A14A1422B
:103F200000D100BF0A1201249440A3B2DC430480F4
:103F300010BD21B1828942F40052828104E082895D
:103F40004DF6FF731A40828170471AB1838A0B4382
:103F5000838202E0838A8B438382704710B50446D4
:103F60003248844208D101211020FFF7EBF80021EC
:103F70001020FFF7E7F857E02D48844209D10121CE
:103F80004804FFF7BFF800214FF40030FFF7BAF8FC
:103F90004AE02848844209D101218804FFF7B2F899
:103FA00000214FF48020FFF7ADF83DE02248844225
:103FB00009D10121C804FFF7A5F800214FF4002022
:103FC000FFF7A0F830E01D48844209D1012108051F
:103FD000FFF798F800214FF48010FFF793F823E0E3
:103FE0001748844208D101212020FFF7ABF80021B7
:103FF0002020FFF7A7F817E01248844209D10121D9
:104000008807FFF77FF800214FF08040FFF77AF82C
:104010000AE00D48844207D101214005FFF772F8FC
:1040200000216005FFF76EF810BD00000010014090
:104030000044004000480040004C00400050004058
:104040000014014000780040007C0040024600203F
:10405000B1F5007F00D100BF13880B400BB10120E8
:1040600000E00020704770B50246002400230025C0
:10407000002040F66A16B14200D100BFC1F34215DC
:1040800001F01F03012606FA03F3012D02D19689E0
:10409000334006E0022D02D1168A334001E0968AB1
:1040A00033400C12012606FA04F41688344013B18A
:1040B0000CB1012000E0002070BDF0B503460024E3
:1040C00000260025002040F66A17B94200D100BF43
:1040D0001846C1F3421401F01F06012707FA06F53E
:1040E000012C01D10C3004E0022C01D1103000E091
:1040F00014301AB107682F43076002E00768AF4326
:104100000760F0BD2DE9FF4705460E460024A14695
:1041100000BFA046B08900B100BF2C8A24F44054EF
:10412000F08804432C82AC8941F20C608443B0884F
:1041300031890843718908430443AC81AC8A24F473
:104140004074B0890443AC826846FFF70BF82048FE
:10415000854202D01F48854202D1DDF80C9001E073
:10416000DDF80890A88900F4004040B109EBC900CF
:1041700000EB091031684900B0FBF1F707E009EBEB
:10418000C90000EB091031688900B0FBF1F7642029
:10419000B7FBF0F004012009642101FB1078A88925
:1041A00000F4004040B1322000EBC800B0FBF1F059
:1041B00000F00700044308E0322000EB08106421FF
:1041C000B0FBF1F000F00F0004432C81BDE8FF8745
:1041D0000010014000140140C1F3080282807047C2
:1041E00002A0FCF79FF800BFFEE70000557361676F
:1041F000654661756C745F48616E646C65720D0A2A
:104200000000000003B401984100009850EAC1206A
:1042100018BF04204A0D18BF40F0010040F2FF72A1
:10422000B2EB515F08BF40F00200012808BF052033
:1042300002B0704730380A2801D2012070470020B0
:104240007047014600BF704730B588B00146002373
:1042500004930593069307930093019302930393AA
:10426000002214E000200AE004AB53F82030194C7F
:1042700034F81040234404AC44F82030401C042897
:10428000F2D301E04B1E19B20029FBD1521C642A63
:10429000E8D300201AE004AB53F82030642493FBE9
:1042A000F4F34DF820305DF8204040F6E4456C43CF
:1042B00040F6FF7594FBF5F4A4F11E0303EBD374F1
:1042C000641024B2044D25F81040401C0428E2D3A9
:1042D00008B030BD260200203801002001490860E6
:1042E0007047000090000020032801D201490860B7
:1042F00070470000D800002020B94FF4FA71054A39
:10430000118005E0012803D140F6C411014A118053
:1043100070470000EC00002070B504460D4600F028
:1043200007F800F031F82946204600F04BF870BD40
:104330001CB501210220FEF7C5FE01218806FEF70B
:10434000D1FE01214806FEF7CDFE092205210D48C8
:10435000FEF747FC092206210A48FEF742FC6020CE
:10436000009002208DF8040003208DF80500002045
:104370008DF806008DF8070069460248FEF7E9FB54
:104380001CBD00000004024008B540208DF800006C
:1043900007208DF801008DF8020001208DF8030040
:1043A0006846FEF7F3FC3F208DF8000004208DF8EE
:1043B00001008DF8020001208DF803006846FEF729
:1043C000E5FC08BD30B587B005460C462548FDF72D
:1043D0001DFD04A8FDF755FF00208DF816008DF88F
:1043E00017008DF818008DF819008DF81A000120BB
:1043F0008DF81B0000208DF812008DF813000820A6
:104400008DF8140003208DF81500ADF8100004A9F4
:104410001448FDF734FE0E208DF80A0000208DF8B8
:104420000B0001208DF80C00ADF80050ADF80240F3
:104430000020ADF80400ADF80600ADF8080001203A
:104440008DF80D006846FDF7FDFC012202210548AC
:10445000FDF70CFE012211460248FDF707FE07B0EA
:1044600030BD00000068004030B50B4603600024FA
:104470000472447208248472002104E0555C00F147
:104480000B046554491C0829F8D330BD10B5044607
:1044900094B900BF00F002FE01201249087012A07A
:1044A000FBF740FF00200F49087000F021FE00BF1D
:1044B00004210F48FEF7B8FB012C12D100BF00F019
:1044C000EDFD0120074908700AA0FBF72BFF002033
:1044D0000449087000F00CFE00BF04210448FEF7F8
:1044E000A5FB10BD6C0200206C6F770D0A00000068
:1044F00000000240686967680D0A0000704700000C
:10450000002000BF7EE0B0EE000A00EB400101EBAE
:10451000C0013E4A02EB810181ED000A9FED3C0A99
:1045200000EB400101EBC00102EB810181ED010ACA
:104530009FED380A00EB400101EBC00102EB810165
:1045400081ED020A002100EB400202EBC0022F4B7A
:1045500003EB8202918100EB400202EBC00203EB0D
:104560008202D18100EB400202EBC00203EB820227
:10457000118200EB400202EBC00203EB8202518287
:1045800000EB400202EBC00203EB8202918200EBDF
:10459000400202EBC00203EB8202D18242F21071B0
:1045A00000EB400202EBC00203EB82021183002108
:1045B00000EB400202EBC00203EB8202518300EBEE
:1045C000400202EBC00203EB820291839FED110ACD
:1045D00000EB400101EBC0011A4602EB810181EDC5
:1045E000080A002100EB400202EBC00203EB82024A
:1045F0009184094900EB400202EBC00203EB820206
:104600009162401C0228FFF67EAF7047080500202B
:10461000CDCCCC3D000000006974000800B585B029
:104620004E480088A0B94E4800684C49B1F90010C6
:10463000884203DD4EF678404A494883484800687E
:104640004649B1F90010884202DC00204549488300
:104650004248B0F90000B0F5487F14D140480068E6
:104660003E49B1F90010884203DA41F288303D49F1
:1046700048833B4800683949B1F90010884202DBA1
:1046800000203849488335484088B0B934488068AC
:104690003249B1F90210884204DD4EF678413148C2
:1046A000A0F846102E4880682C49B1F902108842C3
:1046B00003DC00212B48A0F846102848B0F902007E
:1046C000B0F57A7F16D1264880682449B1F90210E6
:1046D000884204DA41F288312248A0F84610204886
:1046E00080681E49B1F90210884203DB00211D4891
:1046F000A0F846101C4800881A4988831A48418847
:104700001848A0F84810816A88471648416D2C3037
:1047100088471448808C000A14490870114890F8A2
:10472000240048700F48B0F85000000A88700D4807
:1047300090F85000C8700E48007908710C48407914
:1047400048710A464FF400716846FFF78DFE6946CE
:104750000848FDF7A6FD05B000BD00000E010020D1
:104760009006002008050020160200200601002007
:10477000E2000020006400402DE9F04107460D46AC
:10478000164600EE107AB8EEC00A724890ED001A94
:10479000C0EE010A00EE105AB8EEC00A6E4890ED65
:1047A000001AC0EE011A70EEE10A00EE106AB8EECF
:1047B000C00A6A4890ED001AC0EE011A30EEA10A54
:1047C000BDEEC00A10EE100A00B26549088000EE86
:1047D000107AB8EEC00A5F4890ED001AC0EE010AE8
:1047E00000EE105AB8EEC00A5B4890ED001AC0EE19
:1047F000011A70EEA10A00EE106AB8EEC00A57481E
:1048000090ED001AC0EE011A30EEA10ABDEEC00A0A
:1048100010EE100A00B24880784200EE100AB8EE9E
:10482000C00A4C4890ED001AC0EE010A00EE105A82
:10483000B8EEC00A484890ED001AC0EE011A70EEBA
:10484000E10A00EE106AB8EEC00A444890ED001A82
:10485000C0EE011A30EEA10ABDEEC00A10EE100A39
:1048600000B28880784200EE100AB8EEC00A3948DB
:1048700090ED001AC0EE010A00EE105AB8EEC00A20
:10488000354890ED001AC0EE011A70EEA10A00EE54
:10489000106AB8EEC00A314890ED001AC0EE011A55
:1048A00030EEA10ABDEEC00A10EE100A00B2C880B8
:1048B00002F006FC002446E0294901EB44001E21D9
:1048C00001F032FC274931F9141001EE101AB8EE4C
:1048D000C11AF0EE410A224931F9141001EE101A02
:1048E000B8EEC11AB0EE410AC4EBC4011E4A02EB95
:1048F0008100FEF7C5FABDEEC00A10EE100A00B244
:104900001A4921F814001A4931F9141001EE101A4D
:10491000B8EEC11AF0EE410A144931F9141001EE53
:10492000101AB8EEC11AB0EE410A124901EB441058
:10493000FEF71CFBBDEEC00A10EE100A00B20E49D5
:1049400021F81400641C042CB6D302F0C9F9BDE8A8
:10495000F081000050010020540100205801002087
:1049600028010020300100207005002040010020B7
:1049700038010020E00500204801002010B5002289
:1049800011461046FFF7F8FE10BD10B5B1F57A7F5D
:104990000ADA41F618444368A34205D9002A03DD28
:1049A00003685B1C03600CE041F61843994208DD84
:1049B0004368B3F57A7F04D2002A02DA03685B1EEB
:1049C0000360416010BDB1F57A7F08DA41F6184303
:1049D00042689A4203D90268521C02600AE041F61A
:1049E0001842914206DD4268B2F57A7F02D202682F
:1049F000521E02604160704710B518480078174990
:104A0000497840EA0120C0F30A04B4F5B67F0ADB16
:104A100040F29460844206DC1048007B012802DCEE
:104A20000E48407CC0B10E4800680E49086000BFC7
:104A300000F034FB01200C4908600A4801680BA013
:104A4000FBF770FC00200849086000F051FB00BF34
:104A500000F090F9002010BD0120FCE77C0600204A
:104A600068020020780100208802002064627573CB
:104A7000206572726F722061742025640D0A000037
:104A800010B500BF00F00AFB01201349086013A015
:104A9000FBF748FC00201049086000F029FB00BF2C
:104AA0000F4800680F490968401A032812D900F01E
:104AB00045F900BF00F0F2FA0120074908600848F4
:104AC000016809A0FBF72EFC00200349086000F0F4
:104AD0000FFB00BF10BD0000880200207B0000001B
:104AE000680200207801002064627573206669788E
:104AF0002061742025640D0A0000000030B58FB0DD
:104B000004460D46012C30D17548764908600121D4
:104B10000846FEF7D7FA01211020FEF703FB01211A
:104B20008805FEF7CFFA07220A216F48FEF759F8E9
:104B3000A0026E4908606C486D4908603A206D49D2
:104B4000087025206C4908706C48FDF7AFFCE00642
:104B50006B49086069486B4908606B486B4908609D
:104B60006B486C4908606C480560032C32D16B4877
:104B70005C49086001210420FEF7A4FA01218804A1
:104B8000FEF7B0FA01214805FEF79CFA07220B2137
:104B90006348FEF726F84FF4006054490860604807
:104BA000534908600C205349087027205249087067
:104BB0005C48FDF77BFC4FF00060514908605948A4
:104BC00050490860584851490860514857490860A1
:104BD00057480560454800680D9002208DF8380060
:104BE00000208DF83A0003208DF8390000208DF860
:104BF0003B000DA93E480068FDF7ABFF394800684F
:104C0000FFF7ACF94B480B900020ADF83000ADF841
:104C100032004FF48060ADF834000420ADF8360067
:104C20000020ADF838000BA92E480068FFF76AFA9B
:104C300001212C480068FFF77CF92E4800788DF898
:104C4000380005208DF839008DF83A0001208DF8E4
:104C50003B000EA8FEF79AF8274800788DF8380038
:104C600006208DF839008DF83A0001208DF83B00C0
:104C70000EA8FEF78BF822480068009019480068DB
:104C8000001D01902C4802900020039012200490F7
:104C9000002005904FF48060069000200790089057
:104CA0004FF4807009904FF440300A9000200B9030
:104CB0000C900D900E90694612480068FDF7FCFCC0
:104CC000012294210F480068FDF7D8FC0122402101
:104CD00004480068FFF739F900F030F80FB030BD34
:104CE000001001405C01002000000240640100202F
:104CF000600100206901002068010020406402403A
:104D00006C01002070010020008020107401002040
:104D1000814A0008AC0100208001002000480040CA
:104D2000000802402860024000880010B401002002
:104D30007C010020A08601007C06002010B500F058
:104D4000ADF9002240F2255108480068FFF7B5F997
:104D500040F2255105480068FFF7DCF801210448BE
:104D60000068FDF797FB00F0C3F910BD5C0100205F
:104D70007001002010B500F091F900210948006889
:104D8000FDF788FB0848016806480068FDF768FBE6
:104D9000012240F2255105480068FFF78EF900F026
:104DA000A7F910BD70010020740100205C010020F3
:104DB000024800E0401E0028FCD1704780C3C901B2
:104DC00070B504460D4600BF206818B9002003F0F6
:104DD000F9F9F9E700F062F92946204600F010F8E9
:104DE00000F086F970BD10B50446204600F00FF8BB
:104DF00010BD0268516002680A6048600160704737
:104E00004268116042684A60086041607047006013
:104E100040607047D0E900215160D0E90012116074
:104E200000210160416070477047704770B50446CB
:104E30000D46164890F8500048B11548007830B13A
:104E4000E1B214480068283001F095F81CE01248DF
:104E5000006868B111480068B0F5007F14D20F48AF
:104E600002680068401C0D4B18600D4884540BE02C
:104E700000BF0C480068008800F040000028F8D00F
:104E8000E0B2084909688880204670BDB8B00120AA
:104E90006C02002060020020880200208C020020AA
:104EA00020B10120A401002070B505460024002097
:104EB00000F064FF0446214601A0FBF733FA70BD01
:104EC0006D656D6F727920757361676520697320F8
:104ED000256425250D0A000070B500228C2400F5FC
:104EE0001F7300BF05E01D680DB9521C00E00022D1
:104EF0001B1F2500A4F10104F5D18A60C2F18C05C5
:104F00004D608C25CD6064264D687543CE68B5FB39
:104F1000F6F50D6000F14C050D61456C4D6170BDFD
:104F20000021054A11602A2141430522B1FBF2F11B
:104F3000014A121D11607047340400400021054AE7
:104F400011602A2141430522B1FBF2F1014A121FEF
:104F50001160704738040040002002490860091DB4
:104F6000086070473404004070470000002000BF14
:104F70007EE0B0EE000A00EB400101EBC0013E4ACA
:104F800002EB810181ED000A9FED3C0A00EB40013C
:104F900001EBC00102EB810181ED010A9FED380AAE
:104FA00000EB400101EBC00102EB810181ED020A3F
:104FB000002100EB400202EBC0022F4B03EB820208
:104FC000918100EB400202EBC00203EB8202D1812F
:104FD00000EB400202EBC00203EB8202118200EB05
:104FE000400202EBC00203EB8202518200EB40025E
:104FF00002EBC00203EB8202918200EB400202EB63
:10500000C00203EB8202D18242F2107100EB400237
:1050100002EBC00203EB82021183002100EB40028D
:1050200002EBC00203EB8202518300EB400202EB71
:10503000C00203EB820291839FED110A00EB400155
:1050400001EBC0011A4602EB810181ED080A002143
:1050500000EB400202EBC00203EB8202918409499B
:1050600000EB400202EBC00203EB82029162401CA3
:105070000228FFF67EAF7047B0040020CDCCCC3DB7
:10508000000000006974000802480349086000201D
:10509000704700007D9500084002002010B500BF59
:1050A000EFF3108009490A4A127841F8220072B6DB
:1050B00007480078401C06490870084600780A280E
:1050C00002DD04A0FBF72EF910BD000090070020C0
:1050D0003C02002069727120636C6F7365642074F8
:1050E0006F6F206D7563680D0A0000007047000047
:1050F00010B50A48007810B909A0FBF713F9074862
:105100000078401E054908700B49044A127851F88E
:10511000220080F3108800BF10BD00003C02002078
:1051200069727120726573746F72656420746F6F39
:10513000206D7563680D0A0090070020064800681E
:105140004FF4FA61B0FBF1F201FB1200322801D2F8
:10515000012070470020FCE7680200200149086038
:10516000704700003C00002008B5294A29492A4818
:10517000FDF78AFBFDF7DCFA2848C0682849084497
:1051800038B101280BD14FF4E131032001F028FEA2
:1051900007E04FF41651022001F022FE01E000BFAB
:1051A000FEE700BFFFF704FE1EA0FBF7BBF89FED74
:1051B000200B53EC102B20A0FBF7B4F8FDF7CEFA30
:1051C00000F0B2F99620012300221DA100901F4893
:1051D00002F04CFE962000231A461DA100902048A4
:1051E00002F044FE00F02CFA00BFFFF757FF00204A
:1051F0001C4981F850001CA0FBF794F81CA0FBF799
:1052000091F841221FA123A0FBF78CF800BFFEE715
:10521000020021430100341216EE33016005002024
:10522000FFFFDEBC0D0A6C616C616C610D0A000051
:105230009A9999999999F13F252E32660D0A0000A5
:105240007461736B5F696E6974000000C584000847
:105250007461736B5F6C65645F7379730000000049
:1052600045890008B8B001206572726F723A20005B
:10527000676F206261636B20746F206D61696E0DD2
:105280000A0000002E2E5C757365725C6D61696E9C
:105290002E6300000D0A46494C453A2025732C2008
:1052A0004C494E453A2025640D0A00002DE9F04195
:1052B00006460F4634463D4600BF14F8011B25291B
:1052C00002D05C2955D12DE014F8011B642914D0BB
:1052D00004DC25291DD063291FD104E0662910D0E4
:1052E00073291AD104E015F8040B00F0FBF817E05D
:1052F000286800F0ECF82D1D12E001CD00F0BCF89C
:105300000EE0D5ED000AB0EE600A00F03DF82D1D6C
:1053100006E0252000F0E6F802E00020BDE8F0817C
:1053200000BF2BE014F8011B6E290AD004DC3029E1
:105330000FD03F2919D110E0722906D0742914D159
:105340000FE00A2000F0CEF811E00D2000F0CAF8BE
:105350000DE0002000F0C6F809E03F2000F0C2F8A0
:1053600005E0092000F0BEF801E00020D6E700BF0C
:1053700004E014F8010C00F0B5F800BF00BF20787D
:1053800000289AD10120C9E770B52DED028BB0EE4F
:10539000408A0025002418EE100AC0F3C7507F3859
:1053A000C00F00283ED118EE102AC2F3C752A2F156
:1053B0007F00304901228240154413E000B912E019
:1053C000401E18EE102AC2F3C7527F3AC2F11702EC
:1053D000131818EE102ADA4002F00103012282406D
:1053E00003FB0255EAE700BF19E018EE102AC2F3EA
:1053F000C7527F3A0244102A00D311E0401C4908EA
:1054000018EE102AC2F3C7527F3AC2F11702131ADC
:1054100018EE102ADA4002F0010202FB0144E4E730
:1054200000BF1BE01348002118EE102AC2F3C75238
:10543000C2F17F02D04004440DE04008C1F11603E0
:1054400018EE102ADA4002F0010202FB0044102993
:1054500000D101E0491CF0E700BF00BF284600F082
:105460000BF82E2000F03EF8204600F005F8BDECC9
:10547000028B70BD40420F00FEB50446002524F0AB
:10548000004604F000471CB9302000F02BF8FEBDA8
:1054900017B12D2000F026F80CE00A20B6FBF0F141
:1054A00000FB1160303029466D1C0DF801000A2008
:1054B000B6FBF0F6002EF0D105E0691E0D461DF892
:1054C000010000F00FF8002DF7D100BFDFE710B5A5
:1054D000044603E014F8010B00F004F820780028DB
:1054E000F8D110BD10B504462146034800682830A5
:1054F00000F041FD10BD000060020020002208E025
:10550000084800EBC2010868884200D005E0501C42
:10551000C2B2062AF4DD002070470968A1F1100329
:105520001846F9E7B8B0012038B528A0FAF7FAFE16
:10553000002000F0ADFB002406E0284901EBC40088
:10554000FFF765FC601CC4B2062CF6DD234838303A
:10555000FFF75DFC21484030FFF759FC1F484830F9
:10556000FFF755FC4FF44070FDF74CFC012004F0B0
:105570003BF8FFF789FD1A48FFF749FC9620002306
:105580001A4618A100901A4802F070FC0120134935
:1055900081F8500096200523002216A1009019489A
:1055A00002F064FC96200623002217A100901948FF
:1055B00002F05CFC96200523002217A100901948F8
:1055C00002F054FC18A0FAF7ADFE38BD6D616B6FA8
:1055D000735F696E69740D0A00000000B8B00120A5
:1055E000700200207461736B5F5052494E5400008A
:1055F0005D7500087461736B5F7265736F6C7665BF
:1056000072000000698C00087461736B5F69646CE0
:1056100065000000A18300087461736B5F726563AD
:105620006F726400918A00086D616B6F735F696EC1
:1056300069742066696E69736865640D0A0000000C
:1056400010B5002080F3098800BFFF200A490870C8
:10565000FFF754FF094908600846006808490860D8
:1056600008A0FAF75FFE03F0E7FF4FF08050024911
:105670001E39086010BD000022ED00E0600200202D
:10568000640200206D616B6F73207374617274200B
:1056900072756E6E696E670D0A00000010B5FFF737
:1056A000FDFCFFF72BFF044614B908A0FAF73AFEF9
:1056B0000A480068844205D0094804604FF08050D1
:1056C00008490860FFF714FD10BD00006E6F2074DC
:1056D00061736B2072656164790D0A0060020020BD
:1056E0006402002004ED00E070B504460D4600237E
:1056F00004E02E782670641C6D1C5B1C9342F8D36A
:1057000070BD1CB5044601216068FDF7DBFC2089F3
:10571000009001208DF8040000208DF80600032081
:105720008DF8050000208DF8070069462068FDF718
:1057300010FA204600F001F81CBD10B5044660893F
:1057400020B121892068FDF76FFA03E021892068E4
:10575000FDF76CFA10BD10B5044621892068FDF7ED
:1057600067FA10BD80ED000AC0ED010A80ED021A53
:10577000DFED0A1AC0ED031ADFED081AC0ED041AB6
:10578000DFED061AC0ED051ADFED041AC0ED061AAA
:10579000DFED021AC0ED071A70470000000000009C
:1057A000B0EE401AF0EE601A9FED372AB0EE420AD2
:1057B00031EE612AF0EE420A90ED042A30EEC22A60
:1057C00080ED032AC0ED040A90ED062AB5EEC02A4A
:1057D000F1EE10FA15D090ED062AB4EEE02AF1EEC3
:1057E00010FA01D200210BE090ED062AB1EE422A18
:1057F000B4EEE02AF1EE10FA01DC012100E0002114
:1058000029B190ED052A32EE202A80ED052A90ED8F
:10581000062AB5EEC02AF1EE10FA20D000BF90EDB6
:10582000052AD0ED062AB4EEE22AF1EE10FA04DDE4
:1058300090ED062A80ED052A10E090ED052AD0EDC6
:10584000062AF1EE622AB4EEE22AF1EE10FA05D24F
:1058500090ED062AB1EE422A80ED052A00BF90EDB8
:10586000042AD0ED002A22EE222AD0ED052A90ED5E
:10587000013A02EE832AD0ED032A90ED023A02EEBD
:10588000832AB0EE420A7047000000000146887E7D
:1058900008B9002070474A7E4B79086812FB030064
:1058A000F8E770B50446FFF7F9FBA07E217988423E
:1058B0000ADB2079401EA076207E10B92079207660
:1058C00002E0207E401E2076217E6279206811FB56
:1058D0000205FFF70DFC284670BD10B50446206890
:1058E00008B9002010BD04F1080000F027F958B1F4
:1058F000A07E2179884201DB0020F3E7217E6279D6
:10590000206811FB0200EDE70020EBE770B50446CC
:105910000D4616466079002813D000BFFFF7BEFB86
:105920000020124981F8500011A0FAF7FBFC12A0E8
:10593000FAF7F8FC082218A11FA0FAF7F3FC00BF41
:10594000FEE7FFF7ABFB06FB05F1002000F040FA95
:1059500020602571667104F1080000F099F80020BC
:1059600020766076A076FFF7C3FB70BDB8B001204B
:105970006572726F723A20006D657373616765209E
:1059800068617320616C7265616479206265656E1F
:1059900020696E69746564002E2E5C4D414B4F5337
:1059A0005C6B65726E656C5C6D616B6F735F6D6572
:1059B00073736167652E63000D0A46494C453A20B2
:1059C00025732C204C494E453A2025640D0A0000D1
:1059D00010B50446FFF762FBA07E401EA076607EF5
:1059E000401C6076607E2179884201DB0020607671
:1059F000A17E2079401E814202D1A06803F02CFADA
:105A0000FFF776FB10BD10B50446FFF747FBA07EFD
:105A1000401EA076607E401C6076607E21798842C0
:105A200001DB00206076A17E2079401E814202D1F8
:105A3000A06803F011FAFFF75BFB10BD10B5044638
:105A4000FFF72CFBA07E401CA076207E401C207619
:105A5000207E2179884201DB0020207604F10800B5
:105A600000F088F8FFF744FB10BD10B50446FFF7BF
:105A700015FBA07E401CA076207E401C2076207E58
:105A80002179884201DB00202076FFF731FB10BD31
:105A900010B504466068002813D000BFFFF7FEFA77
:105AA00000200D4981F850000CA0FAF73BFC0DA036
:105AB000FAF738FC0A2213A11AA0FAF733FC00BF48
:105AC000FEE7002020600520207300206073201D69
:105AD000FFF79DF910BD0000B8B001206572726F2C
